:020000040800F2
:1000000048040020FD100008051100080711000831
:10001000091100080B1100080D1100080000000074
:100020000000000000000000000000000F110008A8
:10003000111100080000000013110008151100083C
:1000400017110008171100081711000817110008F0
:1000500017110008171100081711000817110008E0
:10006000171100082D0E00081711000817110008BD
:1000700017110008171100081711000817110008C0
:1000800017110008171100081711000817110008B0
:1000900017110008171100081711000817110008A0
:1000A000171100080B0B00081711000817110008A2
:1000B0001711000817110008171100081711000880
:1000C0001711000817110008171100081711000870
:1000D0001711000817110008171100081711000860
:1000E0007D0D0008171100081711000817110008EE
:1000F000930C0008171100081711000817110008C9
:10010000171100081711000817110008171100082F
:10011000171100081711000817110008171100081F
:10012000171100081711000817110008171100080F
:10013000DFF80CD001F006F800480047690E00080F
:1001400048040020800400BF0100A0F10100FBD1A1
:10015000704710B50446204600F0BFFB00BF4FF0CB
:10016000D840408810BD10B5F948806940F2ED11C3
:100170000843F7498861F748006800F0FF2444F01D
:10018000BB10F4490860081D0068F34900EA010447
:10019000F2482043EF49091D0860F148006820F04B
:1001A000704444F03040EE490860081D00680024A7
:1001B00044F0BB30091D0860EA48006820F00F04D5
:1001C00044F00B00E7490860E748406820F47024D9
:1001D00044F43020E4494860E448006840F480700A
:1001E000E2490860E1481038006820F00F0444F04C
:1001F0000300DE4910390860D548406940F480703A
:10020000D34948614FF440704FF02041C86141F23A
:10021000112088610520FFF795FF0020FFF799FF67
:10022000D34908804FF48071012000F062FB4FF445
:10023000E061022000F05DFB0021042000F059FB8A
:1002400040F20721082000F054FB0021092000F0B3
:1002500050FB00210A2000F04CFB00210C2000F094
:1002600048FB00210D2000F044FB00210F2000F08E
:1002700040FB0021102000F03CFB0021112000F089
:1002800038FB0021122000F034FB0021132000F085
:1002900030FB1420FFF756FF41F2B021102000F090
:1002A00028FB0721112000F024FB0520FFF74AFF5F
:1002B00040F2BD11122000F01CFB0520FFF742FFA9
:1002C0004FF4A051132000F014FB0E21292000F060
:1002D00010FB0520FFF736FF0021202000F009FB6E
:1002E0000021212000F005FBA1480088A0F5A841CD
:1002F000083950D140F60D31302000F0FAFA41F6BD
:100300002311312000F0F5FA41F62641322000F0A9
:10031000F0FA42F21C61332000F0EBFA42F219418C
:10032000342000F0E6FA40F60B51352000F0E1FAF7
:1003300041F20601362000F0DCFA4FF4C2613720AA
:1003400000F0D7FA40F20671382000F0D2FA4FF4EC
:100350004171392000F0CDFA40F605613A2000F0F5
:10036000C8FA40F601613B2000F0C3FA4FF48771F0
:100370003C2000F0BEFA40F20E513D2000F0B9FAE8
:1003800040F203413E2000F0B4FA40F207613F2002
:1003900000F0AFFA2EE00621302000F0AAFA40F279
:1003A0000111312000F0A5FA0321322000F0A1FA5A
:1003B0004FF48371352000F09CFA40F6023136206C
:1003C00000F097FA40F20231372000F092FA40F242
:1003D0000771382000F08DFA0721392000F089FAE2
:1003E0004FF4C0613C2000F084FA40F20B213D2024
:1003F00000F07FFA0021502000F07BFAEF2151201D
:1004000000F077FA0021522000F073FA40F23F1119
:10041000532000F06EFA56480088A0F5A84108392C
:1004200005D14FF42741602000F063FA04E04FF457
:100430001C51602000F05DFA0121612000F059FAA2
:1004400000216A2000F055FA0021802000F051FAC6
:100450000021812000F04DFA0021822000F049FAAD
:100460000021832000F045FA0021842000F041FAA9
:100470000021852000F03DFA1021902000F039FA8B
:100480000021922000F035FA0321932000F031FA88
:100490004FF48871952000F02CFA0021972000F08D
:1004A00028FA0021982000F024FA41F238010320B4
:1004B00000F01FFA40F23711072000F01AFA4FF44B
:1004C00080702A49091F086010BD2DE9F0410446DB
:1004D0000D4616461F46A1B2502000F00AFAA01998
:1004E000401E81B2512000F004FAA9B2522000F05F
:1004F00000FAE819401E81B2532000F0FAF9A1B2C7
:10050000202000F0F6F9A9B2212000F0F2F9BDE8B0
:10051000F08110B54FF4A073F02200210846FFF7D8
:10052000D4FF10BD70B504460D46A9B2202000F0DE
:10053000E0F940F23F10001B81B2212000F0D9F910
:10054000222000F0CAF90B48008800F0CAF970BDFB
:10055000001002400014014000F0FF00BB0B00BB84
:1005600000180140001C0140002001401408014017
:100570000C00002000000020E34908807047E34998
:100580000880704770B50546FFF7C3FF222000F0D2
:10059000A4F900BF00BF002403E0284600F0A5F93D
:1005A000641CB4F5963FF8D300BF00BF70BD2DE9C1
:1005B000F05F0546884614461E46DDF828904FF049
:1005C000000BC5F5A070051B234632462946404660
:1005D000FFF77BFF222000F080F900BF00BFDA4662
:1005E00017E0671E0FE019F80B000121B94008421F
:1005F00004D1C648008800F078F903E0C2480088BA
:1006000000F073F97F1E002FEDDA09F101090AF1FC
:10061000010AB245E5D300BF00BFBDE8F09F2DE958
:10062000F05F0546884614461E46DDF828904FF0D8
:10063000000BC5F5A070051B2346324629464046EF
:10064000FFF743FF222000F048F900BF00BFDA4661
:1006500017E0671E0FE039F81B000121B94008427E
:1006600004D1AA48008800F040F903E0A6480088B9
:1006700000F03BF97F1E002FEDDA09F102090AF1C3
:10068000010AB245E5D300BF00BFBDE8F09FF8B551
:1006900005460E4617461C46A4F12000C4B217B109
:1006A000012F1CD10CE09A4800EBC400E90006EBD6
:1006B00046020090500008230622FFF778FF0EE064
:1006C00004EB4400934901EB001005EB4502D10017
:1006D0000090300118231022FFF7A1FF00BF00BFD8
:1006E000F8BD2DE9F04106460D4617461C46FFF7BA
:1006F00010FF07E014F8013B29466D1C3A463046CE
:10070000FFF7C5FF20780028F4D1BDE8F0812DE97E
:10071000F04105460E4617461C46FFF7FAFE0EE06E
:1007200023783A4631462846FFF7B1FF641C761C11
:10073000352E04D300266D1C1E2D00D300252078F5
:100740000028EDD1BDE8F08170B590B006460D46A9
:10075000FFF7DFFE15B1012D1CD10DE0002404E0F0
:10076000202001A90855601CC4B2362CF8DB0021FA
:1007700001AA601C11540DE0002404E0202001A90E
:100780000855601CC4B2142CF8DB002101AA601CBF
:10079000115400BF00BF01AB2A4600213046FFF7CD
:1007A000A0FF10B070BD2DE9F047054688461446FD
:1007B0001E46DDF820A00AFB04F04FEA902AC5F59A
:1007C000A070051B2346324629464046FFF77DFEB2
:1007D000222000F082F800BF00BF4FF0000911E0B6
:1007E000671E0BE0574504D34848008800F07DF8A9
:1007F00003E04548008800F078F87F1E002FF1DA0A
:1008000009F10109B145EBD300BF00BFBDE8F08796
:100810002DE9F05F05460F4614461E46DDF828B068
:10082000DA46C5F5A070051B2346324629463846F0
:10083000FFF74BFE222000F050F800BF00BF4FF042
:1008400000090CE04FF0000805E03AF8020B00F058
:100850004CF808F10108A045F7D309F10109B145A9
:10086000F0D300BF00BFBDE8F09F2DE9F05F064662
:10087000884614461D46DDF828904F46C6F5A07000
:10088000061B23462A4631464046FFF71EFE22201D
:1008900000F023F800BF00BF05FB04F0401E07EB8B
:1008A00040074FF0000B0CE04FF0000A05E037F86E
:1008B000020900F01AF80AF1010AA245F7D30BF178
:1008C000010BAB45F0D300BF00BFBDE8F09F704700
:1008D000114A1060114A116070474FF0D8410880EA
:1008E00070474FF0D841488070474FF0D84148805A
:1008F000704770B505460C462846FFF7EEFF2046C8
:10090000FFF7EFFF70BD0000000000200200002094
:1009100086110008061500080400002008000020C9
:10092000FA48806940F40060F84988614720F84936
:10093000088042F21070091D0880F5481C380088B4
:1009400040F00100F2491C390880F148283800883D
:1009500040F00100EE4928390880EE48006840F078
:1009600000704FF0E021C1F800017047E74880694E
:1009700040F40050E549886140F21F10E6490880C4
:100980004CF25030091D0880E3481C38008840F0C4
:100990000100E1491C390880DF482838008840F010
:1009A0000100DD4928390880DC48006840F48050A7
:1009B0004FF0E021C1F804017047D449896941F042
:1009C0000101D24A91611146896941F480719161B6
:1009D000D349496821F07061D14A5160084640F01E
:1009E000806108465160CD49096841F480714FF03B
:1009F000E022C2F80411CB4949694FF2FF0201EA33
:100A0000020040F4C0610846C64A5161C6490968FF
:100A100041F48041C44A1160C449096841F48041ED
:100A2000C24A1160BE49496821F47001BC4A516054
:100A3000084640F4800108465160BA4949694FF6BA
:100A40000F7201EA020040F060010846B54A5161A8
:100A5000B549096841F40051B34A1160B3490968C6
:100A600041F40051B14A1160AD49496821F070412B
:100A7000AB4A5160084640F0804108465160A949A0
:100A80004969C1F30B0040F4C0410846A54A5161D1
:100A9000A549096841F40041A34A1160A3490968C6
:100AA00041F40041A14A11609849896941F020014F
:100AB000964A91619E49096821F470419C4A1160EF
:100AC000084640F48041084611604FF0E021D1F81B
:100AD000001141F400714FF0E022C2F80011914979
:100AE0008968C1F30B0040F4405108468D4A91607B
:100AF0008D49096841F008018B4A11608B490968EA
:100B000041F00801894A116070470EB580481838D5
:100B1000008810F0010F7DD086A103C9CDE9010145
:100B200001AB002201210846FFF7F1FD8348006870
:100B30000F30B0F5A07F09DD00208149086040F248
:100B400031107E4908607F487F4908607B48006813
:100B5000002807DA00207A490860784908607B4855
:100B6000794908607A4800680F30F02808DD0020D5
:100B700078490860E1207649086077487249086042
:100B800073480068002807DA00207249086070493D
:100B9000086072486C4908606948006810B96D487F
:100BA000006848B16E480F231A46009068480168F3
:100BB00062480068FFF759FE6048006860490968AC
:100BC00008445E4908606248006862490968084450
:100BD0005F4908605948016862480068801D814289
:100BE00042DA564800685F49096888423CDD584847
:100BF00001685D480068801D814235DA544800680C
:100C00005949096888422FDD584806231A46009042
:100C1000554800E03CE0016852480068FFF725FEB7
:100C200000F07EFA40F2311190FBF1F201FB12006C
:100C30004C49086000F074FAE12190FBF1F201FBED
:100C40001200494908604A4806231A46009008469F
:100C5000016844480068FFF708FE46480068401CE9
:100C60004449086008460068374800680F231A4660
:100C700000903748016831480068FFF7F6FD2448C6
:100C80001838008820F0010021491839088000BF79
:100C90000EBD21481838008810F0010F34D02A48C2
:100CA00000683549884205D02548006808BB2948B6
:100CB0000068F0B922480068401C03D1234822494B
:100CC000086006E01E480068012802D11D481E4940
:100CD000086020480068401C03D120481A49086079
:100CE0000AE01C480068012806D11B481649086024
:100CF00002E021481449086007481838008820F0AD
:100D000001000549183908807047000000100240B2
:100D1000282C014000E100E02834014004E100E01B
:100D20000020014000000140000401400C0401408B
:100D300000140140626F6E6A6F757200100000202F
:100D4000180000200E3100082C0000208A2D000819
:100D5000140000201C0000201638000892340008FF
:100D60009A3B00082000002024000020AE3F00082D
:100D70001E3F000828000020062A00085948006885
:100D800010F4804F17D058480068002804DB5648FC
:100D90000068401E544908600020544908605248C9
:100DA000006810B95248534908604E48006840F442
:100DB00080404C4908604B48006810F4005F17D031
:100DC00049480068012804DA47480068401C464941
:100DD00008600020454908604348006810B946484B
:100DE000444908603F48006840F400503D490860AD
:100DF0003C48006810F4004F17D03C4800680028B9
:100E000004DB3A480068401E384908600020364933
:100E100008603648006810B93848364908603148DB
:100E2000006840F400402F49086070472D48006872
:100E300010F0080F17D02D480068012804DA2B485D
:100E40000068401C2949086000202749086027489D
:100E5000006810B92A48274908602248006840F015
:100E6000080020490860704708B5FFF77CF90020AA
:100E7000FFF788FB0020FFF782FB962021490860DE
:100E800046202149086000F04BF940F2311190FBF7
:100E9000F1F201FB12001D49086000F041F9E12167
:100EA00090FBF1F201FB1200194908601948062372
:100EB0001A4600900846016814480068FFF7D5FC00
:100EC000002015490860084908600849086013486F
:100ED00008490860FFF771FDFFF722FDFFF746FDA7
:100EE00000BFFEE714040140180000201C00002091
:100EF0000E3100082C0000208A2D0008163800084A
:100F0000923400081000002014000020200000206F
:100F1000240000201E3F000828000020062A0008A8
:100F20000CB50020019000906B48006840F48030C0
:100F30006949086000BF6848006800F4003000900C
:100F40000198401C0190009818B90198B0F5A06F65
:100F5000F1D16148006810F4003F02D001200090F8
:100F600001E0002000900098012842D15B48006811
:100F700040F01000594908600846006820F003005E
:100F800008600846006840F0020008605248406867
:100F9000514948600846406848600846406840F447
:100FA000806048600846406820F47C10486008462D
:100FB000406840F4E81048600846006840F08070DF
:100FC000086000BF4448006810F0007FFAD0424833
:100FD000406820F00300404948600846406840F0FF
:100FE0000200486000BF3C48406800F00C00082840
:100FF000F9D10CBD10B5FFF793FF10BD10B5364801
:10100000006840F0010034490860084640683449EF
:1010100008403149486008460068324908402E4976
:1010200008600846006820F4802008600846406890
:1010300020F4FE0048604FF41F008860FFF7DAFFDD
:101040004FF000602849086010BD10B50021002055
:101050000022214B5B6803F00C0121B1042906D06A
:10106000082928D107E0214B214C236027E01F4BA2
:101070001F4C236023E0184B5B6803F47010164B81
:101080005B6803F48032022303EB904022B9194BD2
:101090004343174C23600DE00F4B5B6813F4003F94
:1010A00004D0144B4343124C236003E00F4B4343E3
:1010B0000F4C236003E00D4B0D4C236000BF00BFBD
:1010C000054B5B68C3F303130B4CE15C084B1B68D7
:1010D000CB40074C236010BD0010024000200240AE
:1010E0000000FFF8FFFFF6FE08ED00E000127A00B6
:1010F0003000002000093D003400002006488047F1
:1011000006480047FEE7FEE7FEE7FEE7FEE7FEE7EC
:10111000FEE7FEE7FEE7FEE7FD0F000831010008ED
:101120000649074A0868504343F2390210440860F0
:1011300040087047014908607047000044000020E3
:101140006D4EC641064C074D06E0E06840F00103D5
:1011500094E8070098471034AC42F6D3FEF7ECFF52
:10116000404000086040000802E008C8121F08C1A3
:10117000002AFAD170477047002001E001C1121F18
:10118000002AFBD1704700000000000000000404AA
:101190000404040004000A0A0A00000000000A0A0D
:1011A0001F0A1F0A0A00041E050E140F0400031371
:1011B00008040219180002050502150916000C0C96
:1011C00004020000000008040202020408000204F5
:1011D0000808080402000004150E0E15040000049F
:1011E000041F04040000000000000C0C04020000B6
:1011F000001F0000000000000000000C0C000010A8
:101200000804020100000E11131519110E00040646
:10121000040404040E000E11100E01011F001F1023
:10122000080C10110E00080C0A091F0808001F0105
:101230000F1010110E001C02010F11110E001F10D3
:101240001008040201000E11110E11110E000E11F2
:10125000111E100807000000040004000000000038
:101260000400040402001008040204081000000036
:101270001F001F00000002040810080402000E11E5
:10128000100C040004000E11151D0D011E00040AAF
:1012900011111F1111000F11110F11110F000E115B
:1012A000010101110E000F11111111110F001F0189
:1012B000010F01011F001F01010F010101001E119B
:1012C000010119111E001111111F111111000E043D
:1012D000040404040E001C0808080809060011098B
:1012E0000503050911000101010101011F00111B86
:1012F00015151511110011111315191111000E11E9
:10130000111111110E000F11110F010101000E1129
:101310001111150916000F11110F050911000E11F9
:10132000010E10110E001F15040404040400111115
:10133000111111110E0011111111110A04001111D6
:10134000111515150A0011110A040A1111001111C5
:101350000A04040404001F10080E02011F001E02EC
:10136000020202021E0000010204081000001E100A
:10137000101010101E00040A1100000000000000F0
:10138000000000001F000606040800000000000026
:1013900006080E091E0001010D1311130D000000B7
:1013A0000E1101110E00101016191119160000006F
:1013B0000E111F010E000814040E040404000000A6
:1013C0000E191916100E01010D1311111100040050
:1013D000060404040E0008000808080906000101BC
:1013E0000905030509000604040404040E000000B6
:1013F0000B151515150000000D131111110000003B
:101400000E1111110E0000000D13130D010100004B
:1014100016191916101000000D130101010000002B
:101420001E010E100F0004041F0404140800000025
:1014300011111119160000001111110A0400000009
:10144000111115150A000000110A040A110000000C
:1014500011111E10110E00001F0804021F000804C5
:101460000402040408000404040004040400020448
:101470000408040402000215080000000000000037
:1014800000000000000000000C12120C0000000020
:101490000C1E1E0C000000001E12121E0000000098
:1014A0001E1E1E1E000000000C0C121E000000007C
:1014B0000C0C1E1E000000001E120C0C0000000090
:1014C0001E1E0C0C0000000018161618000000006C
:1014D000181E1E1800000000061A1A060000000060
:1014E000061E1E06000000000C12120C0000000078
:1014F0000C1E1E0C000000001E12121E0000000038
:101500001E1E1E1E00000000000000000000000063
:1015100000000000000000000000000000000000CB
:1015200000000000000000000000000000000000BB
:1015300000000000000000008001800180018001A7
:101540008001800180018001800180018001800193
:101550008001000000008001800100000000000008
:1015600000000000000000000000CC00CC00CC0017
:10157000CC00CC00CC000000000000000000000007
:10158000000000000000000000000000000000005B
:10159000000000000000000000000000000000004B
:1015A0000000600C600C600C30063006FE1FFE1F51
:1015B000300638071803FE1FFE1F180318038C019E
:1015C0008C018C01000000008000E003F80F9C0EED
:1015D0008C1C8C188C009800F801E007800E801C91
:1015E0008C188C189C18B80CF00FE0038000800059
:1015F0000000000000000000000000000E181B0C9E
:10160000110C11061106110311039B018E01C03844
:10161000C06C60446044304430441844186C0C384A
:101620000000000000000000E001F0033807180689
:1016300018063003F001F000F8009C310E33061E4E
:10164000061C061C063FFC73F02100000000000091
:10165000000000000000000000000C000C000C0066
:101660000C000C000C000000000000000000000056
:10167000000000000000000000000000000000006A
:101680000000000000000000000200038001C00014
:10169000C0006000600030003000300030003000DA
:1016A00030003000300060006000C000C0008001E9
:1016B000000300020000000020006000C000800164
:1016C0008001000300030006000600060006000675
:1016D0000006000600060003000380018001C00030
:1016E000600020000000000000000000000000007A
:1016F0000000C000C000D806F807E001300338073A
:1017000000000000000000000000000000000000D9
:1017100000000000000000000000000000000000C9
:10172000000080018001800180018001FC3FFC3FBE
:101730008001800180018001800100000000000024
:101740000000000000000000000000000000000099
:101750000000000000000000000000000000000089
:101760000000000000000000800180010001000175
:1017700080000000000000000000000000000000E9
:101780000000000000000000000000000000E00772
:10179000E007000000000000000000000000000062
:1017A0000000000000000000000000000000000039
:1017B0000000000000000000000000000000000029
:1017C0000000000000000000C000C0000000000099
:1017D0000000000000000000000C000C00060006E5
:1017E00000060003000300038003800180018001E4
:1017F000C000C000C00060006000000000000000E9
:101800000000000000000000E003F007380E180C94
:101810000C180C180C180C180C180C180C180C18A8
:101820000C18180C380EF007E00300000000000050
:10183000000000000000000000018001C001F00174
:101840009801880180018001800180018001800170
:101850008001800180018001800100000000000003
:101860000000000000000000E003F80F180C0C1846
:101870000C1800180018000C000600038001C000BE
:10188000600030001800FC1FFC1F0000000000007A
:101890000000000000000000E001F807180E0C0C2A
:1018A0000C0C000C0006C003C007000C0018001848
:1018B0000C180C18180CF807E003000000000000DA
:1018C0000000000000000000000C000E000F000FE0
:1018D000800DC00C600C600C300C180C0C0CFC3F24
:1018E000FC3F000C000C000C000C0000000000008D
:1018F0000000000000000000F80FF80F18001800AA
:101900000C00EC03FC071C0E001C0018001800184B
:101910000C181C0C180EF807E00300000000000073
:101920000000000000000000C007F00F381C18186D
:1019300018000C00CC03EC0F3C0E1C1C0C180C18EF
:101940000C18181C380EF007E0030000000000001F
:101950000000000000000000FC1FFC1F000C00063F
:101960000006000380038001C001C000E0006000A9
:101970006000700030003000300000000000000007
:101980000000000000000000E003F007380E180C13
:10199000180C180C3806F007F007180C0C180C1867
:1019A0000C180C18380CF80FE003000000000000C1
:1019B0000000000000000000E003F007380E1C0CDF
:1019C0000C180C180C181C1C381EF81BE0190018F9
:1019D000000C000C1C0EF807F001000000000000D5
:1019E00000000000000000000000000000000000F7
:1019F00000008001800100000000000000000000E5
:101A000000000000000080018001000000000000D4
:101A100000000000000000000000000000000000C6
:101A200000008001800100000000000000000000B4
:101A30000000000000008001800100010001800022
:101A40000000000000000000000000000000000096
:101A50000000000000000010001C800FE003F800F0
:101A60001800F800E003800F001C001000000000C8
:101A70000000000000000000000000000000000066
:101A8000000000000000F81F000000000000F81F28
:101A90000000000000000000000000000000000046
:101AA0000000000000000000000000000000000036
:101AB00000000000000008003800F001C007001F0F
:101AC0000018001FC007F0013800080000000000E7
:101AD0000000000000000000E003F80F180C0C18D4
:101AE0000C180018000C000600038001C000C000A4
:101AF000C00000000000C000C000000000000000A6
:101B000000000000000000000000E007181804209A
:101B1000C229224A114409440944094409221113E3
:101B2000E20C024004201818E0070000000000004A
:101B3000000000000000000080038003C006C00613
:101B4000C006600C600C301830183018F83FF83FB1
:101B50001C700C600C6006C006C000000000000095
:101B60000000000000000000FC03FC0F0C0C0C182F
:101B70000C180C180C0CFC07FC0F0C180C300C305B
:101B80000C300C300C18FC1FFC070000000000009B
:101B90000000000000000000C007F01F38381C30B3
:101BA0000C7006600600060006000600060006002F
:101BB00006600C701C30F01FE00700000000000001
:101BC0000000000000000000FE03FE0F060E0618D5
:101BD000061806300630063006300630063006306D
:101BE00006180618060EFE0FFE0300000000000097
:101BF0000000000000000000FC3FFC3F0C000C0057
:101C00000C000C000C00FC1FFC1F0C000C000C0056
:101C10000C000C000C00FC3FFC3F0000000000002A
:101C20000000000000000000F83FF83F1800180016
:101C3000180018001800F81FF81F180018001800E6
:101C4000180018001800180018000000000000001C
:101C50000000000000000000E00FF83F3C780E603C
:101C600006E007C00300030003FE03FE03C007C035
:101C700006C00EC03CF0F83FE00F0000000000007E
:101C800000000000000000000C300C300C300C3064
:101C90000C300C300C30FC3FFC3F0C300C300C3066
:101CA0000C300C300C300C300C3000000000000008
:101CB0000000000000000000800180018001800120
:101CC000800180018001800180018001800180010C
:101CD000800180018001800180010000000000007F
:101CE00000000000000000000006000600060006DC
:101CF00000060006000600060006000600060006B4
:101D0000180618063807F003E00100000000000084
:101D1000000000000000000006300618060C060651
:101D200006038601C60066007600DE008E0106030B
:101D30000606060C061806300660000000000000CB
:101D40000000000000000000180018001800180033
:101D500018001800180018001800180018001800C3
:101D6000180018001800F81FF81F000000000000FD
:101D700000000000000000000EE01EF01EF01EF04B
:101D800036D836D836D836D866CC66CC66CCC6C6F9
:101D9000C6C6C6C6C6C686C386C30000000000000D
:101DA00000000000000000000C301C303C303C30D3
:101DB0006C306C30CC30CC308C310C330C330C3676
:101DC0000C360C3C0C3C0C380C30000000000000C1
:101DD0000000000000000000E007F81F1C380E7033
:101DE000066003C003C003C003C003C003C003C038
:101DF00006600E701C38F81FE007000000000000AD
:101E00000000000000000000FC0FFC1F0C380C302C
:101E10000C300C300C300C18FC1FFC070C000C00B4
:101E20000C000C000C000C000C0000000000000076
:101E30000000000000000000E007F81F1C380E70D2
:101E4000066003E003C003C003C003C003C007E093
:101E500006630E3F1C3CF83FE0F700C000000000A6
:101E60000000000000000000FE0FFE1F06380630D4
:101E7000063006300638FE1FFE0706030606060C6F
:101E80000618061806300630066000000000000044
:101E90000000000000000000E003F80F1C0C0C180C
:101EA0000C180C001C00F803E00F001E0038063070
:101EB00006300E301C1CF80FE00700000000000088
:101EC0000000000000000000FE7FFE7F8001800116
:101ED00080018001800180018001800180018001FA
:101EE000800180018001800180010000000000006D
:101EF00000000000000000000C300C300C300C30F2
:101F00000C300C300C300C300C300C300C300C30F1
:101F10000C300C301818F81FE0070000000000001B
:101F200000000000000000000360063006300630AC
:101F30000C180C180C18180C180C380E300630063B
:101F4000700760036003C001C001000000000000D2
:101F500000000000000000000360C361C361C361B2
:101F60006633663366336633663366336C1B6C1BCD
:101F70006C1B2C1A3C1E380E380E000000000000AE
:101F800000000000000000000FE00C701830301856
:101F9000700C600EC00780038003C003E006700C65
:101FA000301C18180C300E6007E000000000000024
:101FB000000000000000000003C006600C301C3868
:101FC0003818300C6006E007C003800180018001F2
:101FD000800180018001800180010000000000007C
:101FE0000000000000000000FC7FFC7F006000306B
:101FF0000018000C000600038001C00060003000E3
:1020000018000C000600FE7FFE7F000000000000AC
:102010000000000000000000E003E003600060003A
:1020200060006000600060006000600060006000B0
:1020300060006000600060006000600060006000A0
:10204000E003E003000000003000300060006000AA
:102050006000C000C000C000C0018001800180019C
:10206000000300030003000600060000000000005B
:102070000000000000000000E003E0030003000394
:102080000003000300030003000300030003000338
:102090000003000300030003000300030003000328
:1020A000E003E003000000000000C001C001600385
:1020B0006003600330063006180C180C00000000A6
:1020C0000000000000000000000000000000000010
:1020D0000000000000000000000000000000000000
:1020E00000000000000000000000000000000000F0
:1020F0000000000000000000FFFFFFFF00000000E4
:1021000000000000000000000C000C000C000C009F
:102110000C000C00000000000000000000000000A7
:1021200000000000000000000000000000000000AF
:10213000000000000000000000000000000000009F
:102140000000F003F8071C0C0C0C000FF00FF80C4B
:102150000C0C0C0C1C0FF80FF01800000000000015
:10216000000000000000000018001800180018000F
:102170001800D803F80F380C181818181818181861
:1021800018181818380CF80FD803000000000000C9
:10219000000000000000000000000000000000003F
:1021A0000000C003F007300E180C180018001800CB
:1021B0001800180C300EF007C003000000000000EB
:1021C00000000000000000000018001800180018AF
:1021D0000018C01BF01F301C1818181818181818F1
:1021E00018181818301CF01FC01B00000000000059
:1021F00000000000000000000000000000000000DF
:102200000000C003F00F300C1818F81FF81F18005A
:1022100018003818301CF00FC00700000000000044
:102220000000000000000000800FC00FC000C000D0
:10223000C000F007F007C000C000C000C000C00030
:10224000C000C000C000C000C000000000000000CE
:10225000000000000000000000000000000000007E
:102260000000E00DF80F180E0C0C0C0C0C0C0C0CF4
:102270000C0C0C0C180EF80FE00D000C0C0C1C06CE
:10228000F807F001000000001800180018001800FE
:102290001800D807F80F381C18181818181818182C
:1022A000181818181818181818180000000000003E
:1022B0000000000000000000C000C000000000009E
:1022C0000000C000C000C000C000C000C000C000CE
:1022D000C000C000C000C000C0000000000000003E
:1022E0000000000000000000C000C000000000006E
:1022F0000000C000C000C000C000C000C000C0009E
:10230000C000C000C000C000C000C000C000C000CD
:10231000F8007800000000000C000C000C000C001D
:102320000C000C0C0C060C038C01CC006C00FC00A7
:102330009C018C030C030C060C0C00000000000038
:102340000000000000000000C000C000C000C0008D
:10235000C000C000C000C000C000C000C000C0007D
:10236000C000C000C000C000C000000000000000AD
:10237000000000000000000000000000000000005D
:1023800000007C3CFF7EC7E383C183C183C183C15E
:1023900083C183C183C183C183C1000000000000E9
:1023A000000000000000000000000000000000002D
:1023B00000009807F80F381C181818181818181863
:1023C000181818181818181818180000000000001D
:1023D00000000000000000000000000000000000FD
:1023E0000000C003F00F300C18181818181818182F
:1023F00018181818300CF00FC0030000000000007F
:1024000000000000000000000000000000000000CC
:102410000000D803F80F380C1818181818181818D6
:1024200018181818380CF80FD803180018001800DE
:10243000180018000000000000000000000000006C
:102440000000C01BF01F301C181818181818181896
:1024500018181818301CF01FC01B0018001800189E
:10246000001800180000000000000000000000003C
:102470000000B007F0037000300030003000300082
:10248000300030003000300030000000000000005C
:10249000000000000000000000000000000000003C
:1024A0000000E003F003380E180C3800F003C007FA
:1024B000000C180C380EF007E003000000000000CC
:1024C000000000000000000000008000C000C0000C
:1024D000C000F007F007C000C000C000C000C0008E
:1024E000C000C000C000C00780070000000000005E
:1024F00000000000000000000000000000000000DC
:10250000000018181818181818181818181818187B
:1025100018181818381CF01FE019000000000000FF
:1025200000000000000000000000000000000000AB
:1025300000000C18180C180C180C30063006300669
:10254000600360036003C001C001000000000000E0
:10255000000000000000000000000000000000007B
:102560000000C141C141C361636363636363363685
:10257000363636361C1C1C1C1C1C000000000000DB
:10258000000000000000000000000000000000004B
:1025900000001C38381C300C6006C003C003C003A8
:1025A000C0036006300C381C1C380000000000001E
:1025B000000000000000000000000000000000001B
:1025C00000001830301830187018600C600CE00CE7
:1025D000C006C00680038003800380018001C00123
:1025E000F00070000000000000000000000000008B
:1025F0000000FC1FFC1F000C000600038001C0004F
:10260000600030001800FC1FFC1F000000000000EC
:10261000000000000000000000038001C000C000B6
:10262000C000C000C000C00060006000300060005A
:102630004000C000C000C000C000C000C000800159
:102640000003000000000000800180018001800183
:102650008001800180018001800180018001800172
:102660008001800180018001800180018001800162
:1026700080018001000000006000C000C0018001F6
:102680008001800180018001000300030006000337
:102690000001800180018001800180018001C00073
:1026A00060000000000000000000000000000000CA
:1026B000000000000000F010F81F080F00000000EC
:1026C000000000000000000000000000000000000A
:1026D00000000000000000000000000000000000FA
:1026E00000000000000000000000000000000000EA
:1026F00000000000000000000000000000000000DA
:1027000000000000000000000000000000000000C9
:10271000C003300C08100420042002400240024094
:1027200002400240042004200810300CC0030000C6
:102730000000000000000000000000000000000099
:10274000C003F00FF81FFC3FFC3FFE7FFE7FFE7FC3
:10275000FE7FFE7FFC3FFC3FF81FF00FC003000030
:102760000000000000000000000000000000000069
:1027700000000000E007F00F1818181818181818B3
:1027800018181818F00FE007000000000000000003
:102790000000000000000000000000000000000039
:1027A00000000000E007F00FF81FF81FF81FF81FE7
:1027B000F81FF81FF00FE007000000000000000005
:1027C0000000000000000000000000000000000009
:1027D0000000000000000000000000000000800178
:1027E000C0036006300C18181818F81FF81F0000F6
:1027F00000000000000000000000000000000000D9
:102800000000000000000000000000000000800147
:10281000C003E007F00FF81FF81FF81FF81F0000B3
:102820000000000000000000000000000000F81F91
:10283000F81F18181818300C6006C003800100003B
:102840000000000000000000000000000000000088
:102850000000000000000000000000000000F81F61
:10286000F81FF81FF81FF00FE007C00380010000F9
:102870000000000000000000000000000000000058
:102880000000000000000000000000000000000048
:1028900000000000E001F00198018C018601860132
:1028A0008C019801F001E001000000000000000030
:1028B0000000000000000000000000000000000018
:1028C00000000000E001F001F801FC01FE01FE0142
:1028D000FC01F801F001E001000000000000000030
:1028E00000000000000000000000000000000000E8
:1028F000000000008007800F8019803180618061B6
:1029000080318019800F8007000000000000000067
:1029100000000000000000000000000000000000B7
:10292000000000008007800F801F803F807F807F35
:10293000803F801F800F8007000000000000000023
:102940000000000000000000C00120022002400141
:1029500030060808080808080808080808080808D1
:102960002002200220022002200220022002200257
:102970002002200200000000C001E003E003C001CB
:10298000F007D80DD80DD80DD80DD80DD80DD80D0D
:10299000600360036003600360036003600360031F
:1029A0006003600300000000C0012002200240011B
:1029B0003006080808080808041002200220400118
:1029C0002002200210040808080804100410042043
:1029D0000440000000000000C001E003E003C0016B
:1029E000F007D80DD80DD80DCC19C631C261C00181
:1029F000600360037006380C180C0C180C180C30AF
:102A00000C6000000000000000000000000000005A
:102A1000E07BE07BE07BE07BE07B000000000000EF
:102A200000000000000000000000E07BE07BE0FF11
:102A3000E0FFE0FFE0FFE0FFE07BE07B0000000064
:102A4000000000000000E07BE0FFE0FFE0FFE0FFAF
:102A5000E0FFE0FFE0FFE0FFE0FFE07B00000000C0
:102A60000000E07BE0FFE0FFE0FFE0FFE0FFE0FFD1
:102A7000E0FFE0FFE0FFE0FFE0FFE07B0000E07B45
:102A8000E0FFE0FFE0FFE0FFE0FFE0FFE0FFE0FF4E
:102A9000E0FFE0FFE0FFE0FFE0FFE07BE07BE0FF46
:102AA000E0FFE0FFE0FFE0FFE0FFE0FFE0FFE0FF2E
:102AB000E0FFE0FFE0FFE0FFE07BE07BE0FFE0FF26
:102AC000E0FFE0FFE0FFE0FFE0FFE0FFE0FFE0FF0E
:102AD000E0FFE0FFE0FFE07BE07BE0FFE0FFE0FF06
:102AE000E0FFE0FFE0FFE0FFE0FFE0FFE0FFE0FFEE
:102AF000E0FFE0FFE07BE07BE0FFE0FFE0FFE0FFE6
:102B0000E0FFE0FFE0FFE0FFE0FFE0FFE0FFE0FFCD
:102B1000E0FFE07BE07BE0FFE0FFE0FFE0FFE0FFC5
:102B2000E0FFE0FFE0FFE0FFE0FFE0FFE0FFE0FFAD
:102B3000E07BE07BE0FFE0FFE0FFE0FFE0FFE0FFA5
:102B4000E0FFE0FFE0FFE0FFE0FFE0FFE0FFE07B11
:102B50000000E07BE0FFE0FFE0FFE0FFE0FFE0FFE0
:102B6000E0FFE0FFE0FFE0FFE0FFE07B00000000AF
:102B70000000E07BE0FFE0FFE0FFE0FFE0FFE0FFC0
:102B8000E0FFE0FFE0FFE07B00000000000000004D
:102B90000000E07BE07BE0FFE0FFE0FFE0FFE0FF24
:102BA000E07BE07B0000000000000000000000006F
:102BB00000000000E07BE07BE07BE07BE07B00004E
:102BC0000000000000000000000000000000000005
:102BD00000000000000000000000000000000000F5
:102BE00000000000000000000000000000000000E5
:102BF00000000000000000000000000000000000D5
:102C000000000000000000000000000000000000C4
:102C100000000000000000000000000000000000B4
:102C200000000000000000000000000000000000A4
:102C30000000000000000000000000000000000094
:102C40000000000000000000000000000000000084
:102C50000000000000000000000000000000000074
:102C60000000000000000000000000000000000064
:102C70000000000000000000000000000000000054
:102C80000000000000000000000000000000000044
:102C90000000000000000000000000000000000034
:102CA0000000000000000000000000000000000024
:102CB0000000000000000000000000000000000014
:102CC0000000000000000000000000000000000004
:102CD00000000000000000000000000000000000F4
:102CE00000000000000000000000000000000000E4
:102CF00000000000000000000000000000000000D4
:102D000000000000000000000000000000000000C3
:102D100000000000000000000000000000000000B3
:102D200000000000000000000000000000000000A3
:102D30000000000000000000000000000000000093
:102D40000000000000000000000000000000000083
:102D50000000000000000000000000000000000073
:102D60000000000000000000000000000000000063
:102D70000000000000000000000000000000000053
:102D80000000000000000000000000000000000043
:102D90000000E07BE07BE07BE07BE07B000000006C
:102DA000000000000000000000000000E07BE07B6D
:102DB000E0FFE0FFE0FFE0FFE0FFE07BE07B000002
:102DC0000000000000000000E07BE0FFE0FFE0FF0B
:102DD000E0FFE0FFE0FFE0FFE0FFE0FFE07B00005E
:102DE00000000000E07BE0FFE0FFE0FFE0FFE0FF2D
:102DF000E0FFE0FFE0FFE0FFE0FFE0FFE07B00003E
:102E00000000E07BE0FFE0FFE0FFE0FFE0FFE0FF2D
:102E1000E0FFE0FFE0FFE0FFE0FFE07B00000000FC
:102E20000000E07BE07BE0FFE0FFE0FFE0FFE0FF91
:102E3000E0FFE0FFE0FFE0FFE0FFE07B00000000DC
:102E400000000000E07BE07BE07BE0FFE0FFE0FFD4
:102E5000E0FFE0FFE0FFE0FFE07B0000000000009B
:102E60000000000000000000E07BE07BE0FFE0FFEE
:102E7000E0FFE0FFE0FFE07B00000000000000005A
:102E8000E07BE07BE07BE0FFE0FFE0FFE0FFE0FFD6
:102E9000E0FFE0FFE07B00000000E07BE07BE0FF84
:102EA000E0FFE0FFE0FFE0FFE0FFE0FFE0FFE0FF2A
:102EB000E0FFE07B0000E07BE0FFE0FFE0FFE0FF01
:102EC000E0FFE0FFE0FFE0FFE0FFE0FFE0FFE07B8E
:102ED00000000000E07BE0FFE0FFE0FFE0FFE0FF3C
:102EE000E0FFE0FFE0FFE0FFE0FFE0FFE07B00004D
:102EF00000000000E07BE0FFE0FFE0FFE0FFE0FF1C
:102F0000E0FFE0FFE0FFE0FFE07B000000000000EA
:102F100000000000E07BE07BE0FFE0FFE0FFE0FF7F
:102F2000E0FFE0FFE07B0000000000000000000088
:102F3000000000000000E07BE07BE07BE07BE07BCA
:102F4000E07B000000000000000000000000000026
:102F50000000000000000000000000000000000071
:102F60000000000000000000000000000000000061
:102F70000000000000000000000000000000000051
:102F80000000000000000000000000000000000041
:102F90000000000000000000000000000000000031
:102FA0000000000000000000000000000000000021
:102FB0000000000000000000000000000000000011
:102FC0000000000000000000000000000000000001
:102FD00000000000000000000000000000000000F1
:102FE00000000000000000000000000000000000E1
:102FF00000000000000000000000000000000000D1
:1030000000000000000000000000000000000000C0
:1030100000000000000000000000000000000000B0
:1030200000000000000000000000000000000000A0
:103030000000000000000000000000000000000090
:103040000000000000000000000000000000000080
:103050000000000000000000000000000000000070
:103060000000000000000000000000000000000060
:103070000000000000000000000000000000000050
:103080000000000000000000000000000000000040
:103090000000000000000000000000000000000030
:1030A0000000000000000000000000000000000020
:1030B0000000000000000000000000000000000010
:1030C0000000000000000000000000000000000000
:1030D00000000000000000000000000000000000F0
:1030E00000000000000000000000000000000000E0
:1030F00000000000000000000000000000000000D0
:1031000000000000000000000000000000000000BF
:1031100000000000000000000000E07BE07BE07B9E
:10312000E07BE07B000000000000000000000000E9
:1031300000000000E07BE07BE0FFE0FFE0FFE0FF5D
:10314000E0FFE07BE07B00000000000000000000EA
:10315000E07BE0FFE0FFE0FFE0FFE0FFE0FFE0FFFB
:10316000E0FFE0FFE07B000000000000E07BE0FF0C
:10317000E0FFE0FFE0FFE0FFE0FFE0FFE0FFE0FF57
:10318000E0FFE0FFE07B00000000E07BE0FFE0FF0D
:10319000E0FFE0FFE0FFE0FFE0FFE0FFE0FFE0FF37
:1031A000E0FFE07B0000E07BE0FFE0FFE0FFE0FF0E
:1031B000E0FFE0FFE0FFE0FFE0FFE0FFE07BE07B1F
:1031C00000000000E07BE0FFE0FFE0FFE0FFE0FF49
:1031D000E0FFE0FFE07BE07BE07B00000000000020
:1031E0000000E07BE0FFE0FFE0FFE0FFE07BE07B52
:1031F000E07B000000000000000000000000000074
:10320000E07BE0FFE0FFE0FFE0FFE0FFE0FFE0FF4A
:10321000E07BE07BE07B0000000000000000E07B42
:10322000E0FFE0FFE0FFE0FFE0FFE0FFE0FFE0FFA6
:10323000E0FFE0FFE07BE07B000000000000E07BBF
:10324000E0FFE0FFE0FFE0FFE0FFE0FFE0FFE0FF86
:10325000E0FFE0FFE0FFE07B00000000E07BE0FF3C
:10326000E0FFE0FFE0FFE0FFE0FFE0FFE0FFE0FF66
:10327000E0FFE0FFE07B000000000000E07BE0FFFB
:10328000E0FFE0FFE0FFE0FFE0FFE0FFE0FFE0FF46
:10329000E07B00000000000000000000E07BE07B1D
:1032A000E0FFE0FFE0FFE0FFE0FFE07BE07B00000D
:1032B0000000000000000000000000000000E07BB3
:1032C000E07BE07BE07BE07B000000000000000092
:1032D00000000000000000000000000000000000EE
:1032E00000000000000000000000000000000000DE
:1032F00000000000000000000000000000000000CE
:1033000000000000000000000000000000000000BD
:1033100000000000000000000000000000000000AD
:10332000000000000000000000000000000000009D
:10333000000000000000000000000000000000008D
:10334000000000000000000000000000000000007D
:10335000000000000000000000000000000000006D
:10336000000000000000000000000000000000005D
:10337000000000000000000000000000000000004D
:10338000000000000000000000000000000000003D
:10339000000000000000000000000000000000002D
:1033A000000000000000000000000000000000001D
:1033B000000000000000000000000000000000000D
:1033C00000000000000000000000000000000000FD
:1033D00000000000000000000000000000000000ED
:1033E00000000000000000000000000000000000DD
:1033F00000000000000000000000000000000000CD
:1034000000000000000000000000000000000000BC
:1034100000000000000000000000000000000000AC
:10342000000000000000000000000000000000009C
:10343000000000000000000000000000000000008C
:10344000000000000000000000000000000000007C
:10345000000000000000000000000000000000006C
:10346000000000000000000000000000000000005C
:10347000000000000000000000000000000000004C
:10348000000000000000000000000000000000003C
:10349000000000000000000000000000000000002C
:1034A000000000000000000000000000000000001C
:1034B00000000000000000000000E07BE07BE07BFB
:1034C000E07BE07B00000000000000000000000046
:1034D00000000000E07BE07BE0FFE0FFE0FFE0FFBA
:1034E000E0FFE07BE07B0000000000000000000047
:1034F000E07BE0FFE0FFE0FFE0FFE0FFE0FFE0FF58
:10350000E0FFE0FFE07B000000000000E07BE0FF68
:10351000E0FFE0FFE0FFE0FFE0FFE0FFE0FFE0FFB3
:10352000E0FFE0FFE07B0000E07BE0FFE0FFE0FF8A
:10353000E0FFE0FFE0FFE0FFE0FFE0FFE0FFE0FF93
:10354000E0FFE0FFE07BE07BE0FFE0FFE0FFE0FF8B
:10355000E0FFE0FFE0FFE0FFE0FFE0FFE0FFE0FF73
:10356000E0FFE07BE07BE0FFE0FFE0FFE0FFE0FF6B
:10357000E0FFE07BE0FFE0FFE0FFE0FFE0FFE0FFD7
:10358000E07BE07BE0FFE0FFE0FFE0FFE0FFE0FF4B
:10359000E07BE0FFE0FFE0FFE0FFE0FFE0FFE07B3B
:1035A000E07BE0FFE0FFE0FFE0FFE0FFE07B00000A
:1035B000E07BE0FFE0FFE0FFE0FFE0FFE07BE07B9F
:1035C000E0FFE0FFE0FFE0FFE0FFE07B0000E07BEA
:1035D000E0FFE0FFE0FFE0FFE0FFE07B0000E07BDA
:1035E000E0FFE0FFE0FFE0FFE07B0000E07BE0FFCA
:1035F000E0FFE0FFE0FFE07B00000000E07BE0FF99
:10360000E0FFE0FFE07B000000000000E07BE0FF67
:10361000E0FFE0FFE07B000000000000E07BE0FF57
:10362000E0FFE07B000000000000E07BE0FFE0FF47
:10363000E07B00000000000000000000E07BE07B79
:1036400000000000000000000000E07BE07B0000C4
:10365000000000000000000000000000000000006A
:10366000000000000000000000000000000000005A
:10367000000000000000000000000000000000004A
:10368000000000000000000000000000000000003A
:10369000000000000000000000000000000000002A
:1036A000000000000000000000000000000000001A
:1036B000000000000000000000000000000000000A
:1036C00000000000000000000000000000000000FA
:1036D00000000000000000000000000000000000EA
:1036E00000000000000000000000000000000000DA
:1036F00000000000000000000000000000000000CA
:1037000000000000000000000000000000000000B9
:1037100000000000000000000000000000000000A9
:103720000000000000000000000000000000000099
:103730000000000000000000000000000000000089
:103740000000000000000000000000000000000079
:103750000000000000000000000000000000000069
:103760000000000000000000000000000000000059
:103770000000000000000000000000000000000049
:103780000000000000000000000000000000000039
:103790000000000000000000000000000000000029
:1037A0000000000000000000000000000000000019
:1037B0000000000000000000000000000000000009
:1037C00000000000000000000000000000000000F9
:1037D00000000000000000000000000000000000E9
:1037E00000000000000000000000000000000000D9
:1037F00000000000000000000000000000000000C9
:1038000000000000000000000000000000000000B8
:10381000000000000000000000000000E07BE07BF2
:1038200000000000000000000000E07BE07B0000E2
:103830000000000000000000E07BE0FFE0FFE07B14
:10384000000000000000E07BE0FFE0FFE07B000004
:1038500000000000E07BE0FFE0FFE0FFE07B000015
:1038600000000000E07BE0FFE0FFE0FFE07B000005
:103870000000E07BE0FFE0FFE0FFE0FFE07B000016
:10388000E07BE0FFE0FFE0FFE0FFE07B0000E07BAB
:10389000E0FFE0FFE0FFE0FFE0FFE07B0000E07B17
:1038A000E0FFE0FFE0FFE0FFE0FFE07BE07BE0FF28
:1038B000E0FFE0FFE0FFE0FFE07B0000E07BE0FFF7
:1038C000E0FFE0FFE0FFE0FFE07BE07BE0FFE0FF08
:1038D000E0FFE0FFE0FFE0FFE07BE0FFE0FFE0FF74
:1038E000E0FFE0FFE0FFE07BE07BE0FFE0FFE0FFE8
:1038F000E0FFE0FFE0FFE07BE0FFE0FFE0FFE0FF54
:10390000E0FFE0FFE07BE07BE0FFE0FFE0FFE0FFC7
:10391000E0FFE0FFE0FFE0FFE0FFE0FFE0FFE0FFAF
:10392000E0FFE07BE07BE0FFE0FFE0FFE0FFE0FFA7
:10393000E0FFE0FFE0FFE0FFE0FFE0FFE0FFE0FF8F
:10394000E07B0000E07BE0FFE0FFE0FFE0FFE0FF66
:10395000E0FFE0FFE0FFE0FFE0FFE0FFE07B0000D2
:1039600000000000E07BE0FFE0FFE0FFE0FFE0FFA1
:10397000E0FFE0FFE0FFE0FFE07B00000000000070
:1039800000000000E07BE07BE0FFE0FFE0FFE0FF05
:10399000E0FFE07BE07B0000000000000000000092
:1039A000000000000000E07BE07BE07BE07BE07B50
:1039B0000000000000000000000000000000000007
:1039C00000000000000000000000000000000000F7
:1039D00000000000000000000000000000000000E7
:1039E00000000000000000000000000000000000D7
:103F20000000E0FFE0FF000000000000E0FFE0FF15
:103F3000E0FFE0FF0000E0FFE0FFE0FFE0FFE0FF68
:103F4000E0FF0000E0FFE0FFE0FFE0FF0000000016
:103F50000000E0FFE0FF00000000000000000000A3
:103F60000000000000000000000000000000000051
:103F70000000000000000000000000000000000041
:103F80000000000000000000000000000000000031
:103F90000000000000000000000000000000000021
:103FA0000000000000000000000000000000000011
:103FB0000000000000000000000000000000000001
:103FC00000000000000000000000000000000000F1
:103FD00000000000000000000000000000000000E1
:103FE00000000000000000000000000000000000D1
:103FF00000000000000000000000000000000000C1
:1040000000000000000000000000000000000000B0
:1040100000000000000000000000000000000000A0
:104020000000000000000000000000000000000090
:104030000000000000000000000000000000000080
:1040400060400008000000204800000068110008DF
:10405000A840000848000020000400007811000873
:104060000000FFFF00000000000000000000000052
:104070000000000000000000000000000000000040
:104080000000000000000000000000000000000030
:1040900000A24A0400000000000000000102030426
:0840A0000607080900000000FA
:04000005080010FDE2
:00000001FF
